{
  "_format": "hh-sol-artifact-1",
  "contractName": "Escrow",
  "sourceName": "contracts/Escrow.sol",
  "abi": [
    {
      "inputs": [
        {
          "internalType": "address",
          "name": "_arbiter",
          "type": "address"
        },
        {
          "internalType": "address",
          "name": "_beneficiary",
          "type": "address"
        },
        {
          "internalType": "uint256",
          "name": "_durationSeconds",
          "type": "uint256"
        }
      ],
      "stateMutability": "payable",
      "type": "constructor"
    },
    {
      "anonymous": false,
      "inputs": [
        {
          "indexed": false,
          "internalType": "uint256",
          "name": "amount",
          "type": "uint256"
        },
        {
          "indexed": false,
          "internalType": "uint256",
          "name": "timestamp",
          "type": "uint256"
        }
      ],
      "name": "Approved",
      "type": "event"
    },
    {
      "anonymous": false,
      "inputs": [
        {
          "indexed": false,
          "internalType": "uint256",
          "name": "amount",
          "type": "uint256"
        },
        {
          "indexed": false,
          "internalType": "uint256",
          "name": "timestamp",
          "type": "uint256"
        }
      ],
      "name": "Cancelled",
      "type": "event"
    },
    {
      "inputs": [],
      "name": "approve",
      "outputs": [],
      "stateMutability": "nonpayable",
      "type": "function"
    },
    {
      "inputs": [],
      "name": "arbiter",
      "outputs": [
        {
          "internalType": "address",
          "name": "",
          "type": "address"
        }
      ],
      "stateMutability": "view",
      "type": "function"
    },
    {
      "inputs": [],
      "name": "beneficiary",
      "outputs": [
        {
          "internalType": "address",
          "name": "",
          "type": "address"
        }
      ],
      "stateMutability": "view",
      "type": "function"
    },
    {
      "inputs": [],
      "name": "cancel",
      "outputs": [],
      "stateMutability": "nonpayable",
      "type": "function"
    },
    {
      "inputs": [],
      "name": "createdAt",
      "outputs": [
        {
          "internalType": "uint256",
          "name": "",
          "type": "uint256"
        }
      ],
      "stateMutability": "view",
      "type": "function"
    },
    {
      "inputs": [],
      "name": "depositor",
      "outputs": [
        {
          "internalType": "address",
          "name": "",
          "type": "address"
        }
      ],
      "stateMutability": "view",
      "type": "function"
    },
    {
      "inputs": [],
      "name": "expiresAt",
      "outputs": [
        {
          "internalType": "uint256",
          "name": "",
          "type": "uint256"
        }
      ],
      "stateMutability": "view",
      "type": "function"
    },
    {
      "inputs": [],
      "name": "getInfo",
      "outputs": [
        {
          "internalType": "address",
          "name": "_depositor",
          "type": "address"
        },
        {
          "internalType": "address",
          "name": "_arbiter",
          "type": "address"
        },
        {
          "internalType": "address",
          "name": "_beneficiary",
          "type": "address"
        },
        {
          "internalType": "uint256",
          "name": "balance",
          "type": "uint256"
        },
        {
          "internalType": "bool",
          "name": "_isApproved",
          "type": "bool"
        },
        {
          "internalType": "bool",
          "name": "_isCancelled",
          "type": "bool"
        },
        {
          "internalType": "uint256",
          "name": "_createdAt",
          "type": "uint256"
        },
        {
          "internalType": "uint256",
          "name": "_expiresAt",
          "type": "uint256"
        }
      ],
      "stateMutability": "view",
      "type": "function"
    },
    {
      "inputs": [],
      "name": "hasExpired",
      "outputs": [
        {
          "internalType": "bool",
          "name": "",
          "type": "bool"
        }
      ],
      "stateMutability": "view",
      "type": "function"
    },
    {
      "inputs": [],
      "name": "isApproved",
      "outputs": [
        {
          "internalType": "bool",
          "name": "",
          "type": "bool"
        }
      ],
      "stateMutability": "view",
      "type": "function"
    },
    {
      "inputs": [],
      "name": "isCancelled",
      "outputs": [
        {
          "internalType": "bool",
          "name": "",
          "type": "bool"
        }
      ],
      "stateMutability": "view",
      "type": "function"
    },
    {
      "inputs": [],
      "name": "originalDeposit",
      "outputs": [
        {
          "internalType": "uint256",
          "name": "",
          "type": "uint256"
        }
      ],
      "stateMutability": "view",
      "type": "function"
    }
  ],
  "bytecode": "0x6080604052604051620011a1380380620011a1833981810160405281019062000029919062000359565b600073ffffffffffffffffffffffffffffffffffffffff168373ffffffffffffffffffffffffffffffffffffffff1614158015620000945750600073ffffffffffffffffffffffffffffffffffffffff168273ffffffffffffffffffffffffffffffffffffffff1614155b620000d6576040517f08c379a0000000000000000000000000000000000000000000000000000000008152600401620000cd9062000416565b60405180910390fd5b600034116200011c576040517f08c379a0000000000000000000000000000000000000000000000000000000008152600401620001139062000488565b60405180910390fd5b3373ffffffffffffffffffffffffffffffffffffffff168373ffffffffffffffffffffffffffffffffffffffff16141580156200018557503373ffffffffffffffffffffffffffffffffffffffff168273ffffffffffffffffffffffffffffffffffffffff1614155b620001c7576040517f08c379a0000000000000000000000000000000000000000000000000000000008152600401620001be90620004fa565b60405180910390fd5b826000806101000a81548173ffffffffffffffffffffffffffffffffffffffff021916908373ffffffffffffffffffffffffffffffffffffffff16021790555081600160006101000a81548173ffffffffffffffffffffffffffffffffffffffff021916908373ffffffffffffffffffffffffffffffffffffffff16021790555033600260006101000a81548173ffffffffffffffffffffffffffffffffffffffff021916908373ffffffffffffffffffffffffffffffffffffffff16021790555034600381905550426004819055508042620002a591906200054b565b60058190555050505062000586565b600080fd5b600073ffffffffffffffffffffffffffffffffffffffff82169050919050565b6000620002e682620002b9565b9050919050565b620002f881620002d9565b81146200030457600080fd5b50565b6000815190506200031881620002ed565b92915050565b6000819050919050565b62000333816200031e565b81146200033f57600080fd5b50565b600081519050620003538162000328565b92915050565b600080600060608486031215620003755762000374620002b4565b5b6000620003858682870162000307565b9350506020620003988682870162000307565b9250506040620003ab8682870162000342565b9150509250925092565b600082825260208201905092915050565b7f496e76616c696420616464726573730000000000000000000000000000000000600082015250565b6000620003fe600f83620003b5565b91506200040b82620003c6565b602082019050919050565b600060208201905081810360008301526200043181620003ef565b9050919050565b7f4d757374206465706f73697420736f6d65204554480000000000000000000000600082015250565b600062000470601583620003b5565b91506200047d8262000438565b602082019050919050565b60006020820190508181036000830152620004a38162000461565b9050919050565b7f4465706f7369746f72206d75737420626520646966666572656e740000000000600082015250565b6000620004e2601b83620003b5565b9150620004ef82620004aa565b602082019050919050565b600060208201905081810360008301526200051581620004d3565b9050919050565b7f4e487b7100000000000000000000000000000000000000000000000000000000600052601160045260246000fd5b600062000558826200031e565b915062000565836200031e565b925082820190508082111562000580576200057f6200051c565b5b92915050565b610c0b80620005966000396000f3fe608060405234801561001057600080fd5b50600436106100b45760003560e01c806390e64d131161007157806390e64d131461016057806395ee12211461017e578063c7c4ff461461019c578063cf09e0d0146101ba578063ea8a1af0146101d8578063fe25e00a146101e2576100b4565b806312424e3f146100b957806328f371aa146100c357806338af3eed146100e15780635a9b0b89146100ff5780637fd0368b146101245780638622a68914610142575b600080fd5b6100c1610200565b005b6100cb61046a565b6040516100d89190610810565b60405180910390f35b6100e961047d565b6040516100f6919061086c565b60405180910390f35b6101076104a3565b60405161011b9897969594939291906108a0565b60405180910390f35b61012c610557565b604051610139919061091e565b60405180910390f35b61014a61055d565b604051610157919061091e565b60405180910390f35b610168610563565b6040516101759190610810565b60405180910390f35b610186610570565b6040516101939190610810565b60405180910390f35b6101a4610583565b6040516101b1919061086c565b60405180910390f35b6101c26105a9565b6040516101cf919061091e565b60405180910390f35b6101e06105af565b005b6101ea6107d1565b6040516101f7919061086c565b60405180910390f35b60008054906101000a900473ffffffffffffffffffffffffffffffffffffffff1673ffffffffffffffffffffffffffffffffffffffff163373ffffffffffffffffffffffffffffffffffffffff161461028e576040517f08c379a000000000000000000000000000000000000000000000000000000000815260040161028590610996565b60405180910390fd5b600660009054906101000a900460ff161580156102b85750600660019054906101000a900460ff16155b6102f7576040517f08c379a00000000000000000000000000000000000000000000000000000000081526004016102ee90610a02565b60405180910390fd5b6102ff610563565b1561033f576040517f08c379a000000000000000000000000000000000000000000000000000000000815260040161033690610a6e565b60405180910390fd5b60004790506000600160009054906101000a900473ffffffffffffffffffffffffffffffffffffffff1673ffffffffffffffffffffffffffffffffffffffff168260405161038c90610abf565b60006040518083038185875af1925050503d80600081146103c9576040519150601f19603f3d011682016040523d82523d6000602084013e6103ce565b606091505b5050905080610412576040517f08c379a000000000000000000000000000000000000000000000000000000000815260040161040990610b20565b60405180910390fd5b6001600660006101000a81548160ff0219169083151502179055507f1527ad5e6cfbfe249bfd6f9571cbfee0ce4a12335089fa9c6efeab04fec1f7a3824260405161045e929190610b40565b60405180910390a15050565b600660009054906101000a900460ff1681565b600160009054906101000a900473ffffffffffffffffffffffffffffffffffffffff1681565b600080600080600080600080600260009054906101000a900473ffffffffffffffffffffffffffffffffffffffff1660008054906101000a900473ffffffffffffffffffffffffffffffffffffffff16600160009054906101000a900473ffffffffffffffffffffffffffffffffffffffff1647600660009054906101000a900460ff16600660019054906101000a900460ff16600454600554975097509750975097509750975097509091929394959697565b60035481565b60055481565b6000600554421015905090565b600660019054906101000a900460ff1681565b600260009054906101000a900473ffffffffffffffffffffffffffffffffffffffff1681565b60045481565b60008054906101000a900473ffffffffffffffffffffffffffffffffffffffff1673ffffffffffffffffffffffffffffffffffffffff163373ffffffffffffffffffffffffffffffffffffffff161461063d576040517f08c379a000000000000000000000000000000000000000000000000000000000815260040161063490610996565b60405180910390fd5b600660009054906101000a900460ff161580156106675750600660019054906101000a900460ff16155b6106a6576040517f08c379a000000000000000000000000000000000000000000000000000000000815260040161069d90610a02565b60405180910390fd5b60004790506000600260009054906101000a900473ffffffffffffffffffffffffffffffffffffffff1673ffffffffffffffffffffffffffffffffffffffff16826040516106f390610abf565b60006040518083038185875af1925050503d8060008114610730576040519150601f19603f3d011682016040523d82523d6000602084013e610735565b606091505b5050905080610779576040517f08c379a000000000000000000000000000000000000000000000000000000000815260040161077090610bb5565b60405180910390fd5b6001600660016101000a81548160ff0219169083151502179055507fa761582a460180d55522f9f5fdc076390a1f48a7a62a8afbd45c1bb797948edb82426040516107c5929190610b40565b60405180910390a15050565b60008054906101000a900473ffffffffffffffffffffffffffffffffffffffff1681565b60008115159050919050565b61080a816107f5565b82525050565b60006020820190506108256000830184610801565b92915050565b600073ffffffffffffffffffffffffffffffffffffffff82169050919050565b60006108568261082b565b9050919050565b6108668161084b565b82525050565b6000602082019050610881600083018461085d565b92915050565b6000819050919050565b61089a81610887565b82525050565b6000610100820190506108b6600083018b61085d565b6108c3602083018a61085d565b6108d0604083018961085d565b6108dd6060830188610891565b6108ea6080830187610801565b6108f760a0830186610801565b61090460c0830185610891565b61091160e0830184610891565b9998505050505050505050565b60006020820190506109336000830184610891565b92915050565b600082825260208201905092915050565b7f4f6e6c7920617262697465722063616e2063616c6c2074686973000000000000600082015250565b6000610980601a83610939565b915061098b8261094a565b602082019050919050565b600060208201905081810360008301526109af81610973565b9050919050565b7f457363726f7720616c726561647920636f6d706c657465640000000000000000600082015250565b60006109ec601883610939565b91506109f7826109b6565b602082019050919050565b60006020820190508181036000830152610a1b816109df565b9050919050565b7f457363726f772068617320657870697265640000000000000000000000000000600082015250565b6000610a58601283610939565b9150610a6382610a22565b602082019050919050565b60006020820190508181036000830152610a8781610a4b565b9050919050565b600081905092915050565b50565b6000610aa9600083610a8e565b9150610ab482610a99565b600082019050919050565b6000610aca82610a9c565b9150819050919050565b7f4661696c656420746f2073656e64204574686572000000000000000000000000600082015250565b6000610b0a601483610939565b9150610b1582610ad4565b602082019050919050565b60006020820190508181036000830152610b3981610afd565b9050919050565b6000604082019050610b556000830185610891565b610b626020830184610891565b9392505050565b7f4661696c656420746f20726566756e6420457468657200000000000000000000600082015250565b6000610b9f601683610939565b9150610baa82610b69565b602082019050919050565b60006020820190508181036000830152610bce81610b92565b905091905056fea26469706673582212201aa9b2a9bcb5d7a5c571fafab32486f6775d345f229866b116924713ea98da0264736f6c63430008130033",
  "linkReferences": {},
  "deployedLinkReferences": {}
}