{
  "_format": "hh-sol-artifact-1",
  "contractName": "Escrow",
  "sourceName": "contracts/Escrow.sol",
  "abi": [
    {
      "inputs": [
        {
          "internalType": "address",
          "name": "_arbiter",
          "type": "address"
        },
        {
          "internalType": "address",
          "name": "_beneficiary",
          "type": "address"
        },
        {
          "internalType": "uint256",
          "name": "_durationSeconds",
          "type": "uint256"
        }
      ],
      "stateMutability": "payable",
      "type": "constructor"
    },
    {
      "anonymous": false,
      "inputs": [
        {
          "indexed": false,
          "internalType": "uint256",
          "name": "amount",
          "type": "uint256"
        },
        {
          "indexed": false,
          "internalType": "uint256",
          "name": "timestamp",
          "type": "uint256"
        }
      ],
      "name": "Approved",
      "type": "event"
    },
    {
      "anonymous": false,
      "inputs": [
        {
          "indexed": false,
          "internalType": "uint256",
          "name": "amount",
          "type": "uint256"
        },
        {
          "indexed": false,
          "internalType": "uint256",
          "name": "timestamp",
          "type": "uint256"
        }
      ],
      "name": "Cancelled",
      "type": "event"
    },
    {
      "inputs": [],
      "name": "approve",
      "outputs": [],
      "stateMutability": "nonpayable",
      "type": "function"
    },
    {
      "inputs": [],
      "name": "arbiter",
      "outputs": [
        {
          "internalType": "address",
          "name": "",
          "type": "address"
        }
      ],
      "stateMutability": "view",
      "type": "function"
    },
    {
      "inputs": [],
      "name": "beneficiary",
      "outputs": [
        {
          "internalType": "address",
          "name": "",
          "type": "address"
        }
      ],
      "stateMutability": "view",
      "type": "function"
    },
    {
      "inputs": [],
      "name": "cancel",
      "outputs": [],
      "stateMutability": "nonpayable",
      "type": "function"
    },
    {
      "inputs": [],
      "name": "createdAt",
      "outputs": [
        {
          "internalType": "uint256",
          "name": "",
          "type": "uint256"
        }
      ],
      "stateMutability": "view",
      "type": "function"
    },
    {
      "inputs": [],
      "name": "depositor",
      "outputs": [
        {
          "internalType": "address",
          "name": "",
          "type": "address"
        }
      ],
      "stateMutability": "view",
      "type": "function"
    },
    {
      "inputs": [],
      "name": "expiresAt",
      "outputs": [
        {
          "internalType": "uint256",
          "name": "",
          "type": "uint256"
        }
      ],
      "stateMutability": "view",
      "type": "function"
    },
    {
      "inputs": [],
      "name": "getInfo",
      "outputs": [
        {
          "internalType": "address",
          "name": "_depositor",
          "type": "address"
        },
        {
          "internalType": "address",
          "name": "_arbiter",
          "type": "address"
        },
        {
          "internalType": "address",
          "name": "_beneficiary",
          "type": "address"
        },
        {
          "internalType": "uint256",
          "name": "balance",
          "type": "uint256"
        },
        {
          "internalType": "bool",
          "name": "_isApproved",
          "type": "bool"
        },
        {
          "internalType": "bool",
          "name": "_isCancelled",
          "type": "bool"
        },
        {
          "internalType": "uint256",
          "name": "_createdAt",
          "type": "uint256"
        },
        {
          "internalType": "uint256",
          "name": "_expiresAt",
          "type": "uint256"
        }
      ],
      "stateMutability": "view",
      "type": "function"
    },
    {
      "inputs": [],
      "name": "hasExpired",
      "outputs": [
        {
          "internalType": "bool",
          "name": "",
          "type": "bool"
        }
      ],
      "stateMutability": "view",
      "type": "function"
    },
    {
      "inputs": [],
      "name": "isApproved",
      "outputs": [
        {
          "internalType": "bool",
          "name": "",
          "type": "bool"
        }
      ],
      "stateMutability": "view",
      "type": "function"
    },
    {
      "inputs": [],
      "name": "isCancelled",
      "outputs": [
        {
          "internalType": "bool",
          "name": "",
          "type": "bool"
        }
      ],
      "stateMutability": "view",
      "type": "function"
    }
  ],
  "bytecode": "0x60806040526040516200116b3803806200116b833981810160405281019062000029919062000352565b600073ffffffffffffffffffffffffffffffffffffffff168373ffffffffffffffffffffffffffffffffffffffff1614158015620000945750600073ffffffffffffffffffffffffffffffffffffffff168273ffffffffffffffffffffffffffffffffffffffff1614155b620000d6576040517f08c379a0000000000000000000000000000000000000000000000000000000008152600401620000cd906200040f565b60405180910390fd5b600034116200011c576040517f08c379a0000000000000000000000000000000000000000000000000000000008152600401620001139062000481565b60405180910390fd5b3373ffffffffffffffffffffffffffffffffffffffff168373ffffffffffffffffffffffffffffffffffffffff16141580156200018557503373ffffffffffffffffffffffffffffffffffffffff168273ffffffffffffffffffffffffffffffffffffffff1614155b620001c7576040517f08c379a0000000000000000000000000000000000000000000000000000000008152600401620001be90620004f3565b60405180910390fd5b826000806101000a81548173ffffffffffffffffffffffffffffffffffffffff021916908373ffffffffffffffffffffffffffffffffffffffff16021790555081600160006101000a81548173ffffffffffffffffffffffffffffffffffffffff021916908373ffffffffffffffffffffffffffffffffffffffff16021790555033600260006101000a81548173ffffffffffffffffffffffffffffffffffffffff021916908373ffffffffffffffffffffffffffffffffffffffff1602179055504260038190555080426200029e919062000544565b6004819055505050506200057f565b600080fd5b600073ffffffffffffffffffffffffffffffffffffffff82169050919050565b6000620002df82620002b2565b9050919050565b620002f181620002d2565b8114620002fd57600080fd5b50565b6000815190506200031181620002e6565b92915050565b6000819050919050565b6200032c8162000317565b81146200033857600080fd5b50565b6000815190506200034c8162000321565b92915050565b6000806000606084860312156200036e576200036d620002ad565b5b60006200037e8682870162000300565b9350506020620003918682870162000300565b9250506040620003a4868287016200033b565b9150509250925092565b600082825260208201905092915050565b7f496e76616c696420616464726573730000000000000000000000000000000000600082015250565b6000620003f7600f83620003ae565b91506200040482620003bf565b602082019050919050565b600060208201905081810360008301526200042a81620003e8565b9050919050565b7f4d757374206465706f73697420736f6d65204554480000000000000000000000600082015250565b600062000469601583620003ae565b9150620004768262000431565b602082019050919050565b600060208201905081810360008301526200049c816200045a565b9050919050565b7f4465706f7369746f72206d75737420626520646966666572656e740000000000600082015250565b6000620004db601b83620003ae565b9150620004e882620004a3565b602082019050919050565b600060208201905081810360008301526200050e81620004cc565b9050919050565b7f4e487b7100000000000000000000000000000000000000000000000000000000600052601160045260246000fd5b6000620005518262000317565b91506200055e8362000317565b925082820190508082111562000579576200057862000515565b5b92915050565b610bdc806200058f6000396000f3fe608060405234801561001057600080fd5b50600436106100a95760003560e01c806390e64d131161007157806390e64d131461013757806395ee122114610155578063c7c4ff4614610173578063cf09e0d014610191578063ea8a1af0146101af578063fe25e00a146101b9576100a9565b806312424e3f146100ae57806328f371aa146100b857806338af3eed146100d65780635a9b0b89146100f45780638622a68914610119575b600080fd5b6100b66101d7565b005b6100c0610441565b6040516100cd91906107e1565b60405180910390f35b6100de610454565b6040516100eb919061083d565b60405180910390f35b6100fc61047a565b604051610110989796959493929190610871565b60405180910390f35b61012161052e565b60405161012e91906108ef565b60405180910390f35b61013f610534565b60405161014c91906107e1565b60405180910390f35b61015d610541565b60405161016a91906107e1565b60405180910390f35b61017b610554565b604051610188919061083d565b60405180910390f35b61019961057a565b6040516101a691906108ef565b60405180910390f35b6101b7610580565b005b6101c16107a2565b6040516101ce919061083d565b60405180910390f35b60008054906101000a900473ffffffffffffffffffffffffffffffffffffffff1673ffffffffffffffffffffffffffffffffffffffff163373ffffffffffffffffffffffffffffffffffffffff1614610265576040517f08c379a000000000000000000000000000000000000000000000000000000000815260040161025c90610967565b60405180910390fd5b600560009054906101000a900460ff1615801561028f5750600560019054906101000a900460ff16155b6102ce576040517f08c379a00000000000000000000000000000000000000000000000000000000081526004016102c5906109d3565b60405180910390fd5b6102d6610534565b15610316576040517f08c379a000000000000000000000000000000000000000000000000000000000815260040161030d90610a3f565b60405180910390fd5b60004790506000600160009054906101000a900473ffffffffffffffffffffffffffffffffffffffff1673ffffffffffffffffffffffffffffffffffffffff168260405161036390610a90565b60006040518083038185875af1925050503d80600081146103a0576040519150601f19603f3d011682016040523d82523d6000602084013e6103a5565b606091505b50509050806103e9576040517f08c379a00000000000000000000000000000000000000000000000000000000081526004016103e090610af1565b60405180910390fd5b6001600560006101000a81548160ff0219169083151502179055507f1527ad5e6cfbfe249bfd6f9571cbfee0ce4a12335089fa9c6efeab04fec1f7a38242604051610435929190610b11565b60405180910390a15050565b600560009054906101000a900460ff1681565b600160009054906101000a900473ffffffffffffffffffffffffffffffffffffffff1681565b600080600080600080600080600260009054906101000a900473ffffffffffffffffffffffffffffffffffffffff1660008054906101000a900473ffffffffffffffffffffffffffffffffffffffff16600160009054906101000a900473ffffffffffffffffffffffffffffffffffffffff1647600560009054906101000a900460ff16600560019054906101000a900460ff16600354600454975097509750975097509750975097509091929394959697565b60045481565b6000600454421015905090565b600560019054906101000a900460ff1681565b600260009054906101000a900473ffffffffffffffffffffffffffffffffffffffff1681565b60035481565b60008054906101000a900473ffffffffffffffffffffffffffffffffffffffff1673ffffffffffffffffffffffffffffffffffffffff163373ffffffffffffffffffffffffffffffffffffffff161461060e576040517f08c379a000000000000000000000000000000000000000000000000000000000815260040161060590610967565b60405180910390fd5b600560009054906101000a900460ff161580156106385750600560019054906101000a900460ff16155b610677576040517f08c379a000000000000000000000000000000000000000000000000000000000815260040161066e906109d3565b60405180910390fd5b60004790506000600260009054906101000a900473ffffffffffffffffffffffffffffffffffffffff1673ffffffffffffffffffffffffffffffffffffffff16826040516106c490610a90565b60006040518083038185875af1925050503d8060008114610701576040519150601f19603f3d011682016040523d82523d6000602084013e610706565b606091505b505090508061074a576040517f08c379a000000000000000000000000000000000000000000000000000000000815260040161074190610b86565b60405180910390fd5b6001600560016101000a81548160ff0219169083151502179055507fa761582a460180d55522f9f5fdc076390a1f48a7a62a8afbd45c1bb797948edb8242604051610796929190610b11565b60405180910390a15050565b60008054906101000a900473ffffffffffffffffffffffffffffffffffffffff1681565b60008115159050919050565b6107db816107c6565b82525050565b60006020820190506107f660008301846107d2565b92915050565b600073ffffffffffffffffffffffffffffffffffffffff82169050919050565b6000610827826107fc565b9050919050565b6108378161081c565b82525050565b6000602082019050610852600083018461082e565b92915050565b6000819050919050565b61086b81610858565b82525050565b600061010082019050610887600083018b61082e565b610894602083018a61082e565b6108a1604083018961082e565b6108ae6060830188610862565b6108bb60808301876107d2565b6108c860a08301866107d2565b6108d560c0830185610862565b6108e260e0830184610862565b9998505050505050505050565b60006020820190506109046000830184610862565b92915050565b600082825260208201905092915050565b7f4f6e6c7920617262697465722063616e2063616c6c2074686973000000000000600082015250565b6000610951601a8361090a565b915061095c8261091b565b602082019050919050565b6000602082019050818103600083015261098081610944565b9050919050565b7f457363726f7720616c726561647920636f6d706c657465640000000000000000600082015250565b60006109bd60188361090a565b91506109c882610987565b602082019050919050565b600060208201905081810360008301526109ec816109b0565b9050919050565b7f457363726f772068617320657870697265640000000000000000000000000000600082015250565b6000610a2960128361090a565b9150610a34826109f3565b602082019050919050565b60006020820190508181036000830152610a5881610a1c565b9050919050565b600081905092915050565b50565b6000610a7a600083610a5f565b9150610a8582610a6a565b600082019050919050565b6000610a9b82610a6d565b9150819050919050565b7f4661696c656420746f2073656e64204574686572000000000000000000000000600082015250565b6000610adb60148361090a565b9150610ae682610aa5565b602082019050919050565b60006020820190508181036000830152610b0a81610ace565b9050919050565b6000604082019050610b266000830185610862565b610b336020830184610862565b9392505050565b7f4661696c656420746f20726566756e6420457468657200000000000000000000600082015250565b6000610b7060168361090a565b9150610b7b82610b3a565b602082019050919050565b60006020820190508181036000830152610b9f81610b63565b905091905056fea264697066735822122084406c9fdd259c8513fe975bef4b85c3066cb2d9c68ea52600dd6812226d33d164736f6c63430008130033",
  "linkReferences": {},
  "deployedLinkReferences": {}
}